{
  "contractName": "Airdrop",
  "abi": [
    {
      "inputs": [
        {
          "internalType": "address",
          "name": "_OM",
          "type": "address"
        },
        {
          "internalType": "address",
          "name": "_OC",
          "type": "address"
        }
      ],
      "stateMutability": "nonpayable",
      "type": "constructor"
    },
    {
      "anonymous": false,
      "inputs": [
        {
          "indexed": true,
          "internalType": "address",
          "name": "user",
          "type": "address"
        },
        {
          "indexed": false,
          "internalType": "uint256",
          "name": "amount",
          "type": "uint256"
        }
      ],
      "name": "AirdropClaimed",
      "type": "event"
    },
    {
      "anonymous": false,
      "inputs": [
        {
          "indexed": false,
          "internalType": "uint256",
          "name": "amount",
          "type": "uint256"
        }
      ],
      "name": "AirdropFunded",
      "type": "event"
    },
    {
      "inputs": [],
      "name": "OC",
      "outputs": [
        {
          "internalType": "contract IToken",
          "name": "",
          "type": "address"
        }
      ],
      "stateMutability": "view",
      "type": "function"
    },
    {
      "inputs": [],
      "name": "OM",
      "outputs": [
        {
          "internalType": "contract IToken",
          "name": "",
          "type": "address"
        }
      ],
      "stateMutability": "view",
      "type": "function"
    },
    {
      "inputs": [],
      "name": "claimAirdrop",
      "outputs": [],
      "stateMutability": "nonpayable",
      "type": "function"
    },
    {
      "inputs": [
        {
          "internalType": "uint256",
          "name": "amount",
          "type": "uint256"
        }
      ],
      "name": "fundAirdrop",
      "outputs": [],
      "stateMutability": "nonpayable",
      "type": "function"
    },
    {
      "inputs": [],
      "name": "minOMRequired",
      "outputs": [
        {
          "internalType": "uint256",
          "name": "",
          "type": "uint256"
        }
      ],
      "stateMutability": "view",
      "type": "function"
    },
    {
      "inputs": [],
      "name": "owner",
      "outputs": [
        {
          "internalType": "address",
          "name": "",
          "type": "address"
        }
      ],
      "stateMutability": "view",
      "type": "function"
    },
    {
      "inputs": [],
      "name": "rewardOC",
      "outputs": [
        {
          "internalType": "uint256",
          "name": "",
          "type": "uint256"
        }
      ],
      "stateMutability": "view",
      "type": "function"
    },
    {
      "inputs": [
        {
          "internalType": "uint256",
          "name": "_minOMRequired",
          "type": "uint256"
        },
        {
          "internalType": "uint256",
          "name": "_rewardOC",
          "type": "uint256"
        }
      ],
      "name": "updateAirdropParams",
      "outputs": [],
      "stateMutability": "nonpayable",
      "type": "function"
    },
    {
      "inputs": [
        {
          "internalType": "uint256",
          "name": "amount",
          "type": "uint256"
        }
      ],
      "name": "withdrawOC",
      "outputs": [],
      "stateMutability": "nonpayable",
      "type": "function"
    }
  ],
  "bytecode": "0x608060405268056bc75e2d63100000600355678ac7230489e8000060045534801561002957600080fd5b50d3801561003657600080fd5b50d2801561004357600080fd5b50604051610752380380610752833981016040819052610062916100cc565b600080546001600160a01b039384166001600160a01b03199182161790915560018054929093169181169190911790915560028054909116331790556100ff565b80516000906001600160a81b03811681146100bd57600080fd5b6001600160a01b031692915050565b600080604083850312156100df57600080fd5b6100e8836100a3565b91506100f6602084016100a3565b90509250929050565b6106448061010e6000396000f3fe608060405234801561001057600080fd5b50d3801561001d57600080fd5b50d2801561002a57600080fd5b50600436106100ad5760003560e01c806347b5d21d1161008057806347b5d21d146101215780635b88349d146101345780638da5cb5b1461013c5780638e2decd81461014f578063fc01a0a61461016257600080fd5b8063011d835e146100b25780630625b0b9146100c7578063141d717b146100e357806316fdc30d1461010e575b600080fd5b6100c56100c0366004610567565b61016b565b005b6100d060035481565b6040519081526020015b60405180910390f35b6001546100f6906001600160a01b031681565b6040516001600160a01b0390911681526020016100da565b6100c561011c366004610580565b61025e565b6000546100f6906001600160a01b031681565b6100c5610293565b6002546100f6906001600160a01b031681565b6100c561015d366004610567565b610448565b6100d060045481565b6002546001600160a01b0316331461019e5760405162461bcd60e51b8152600401610195906105a2565b60405180910390fd5b60015460025460405163a9059cbb60e01b81526001600160a01b0391821660048201526024810184905291169063a9059cbb906044016020604051808303816000875af11580156101f3573d6000803e3d6000fd5b505050506040513d601f19601f8201168201806040525081019061021791906105cc565b61025b5760405162461bcd60e51b815260206004820152601560248201527446616c6c6f20656c2072657469726f206465204f4360581b6044820152606401610195565b50565b6002546001600160a01b031633146102885760405162461bcd60e51b8152600401610195906105a2565b600391909155600455565b6003546000546040516370a0823160e01b81523360048201526001600160a01b03909116906370a0823190602401602060405180830381865afa1580156102de573d6000803e3d6000fd5b505050506040513d601f19601f8201168201806040525081019061030291906105f5565b10156103505760405162461bcd60e51b815260206004820152601860248201527f4e6f207469656e657320737566696369656e746573204f4d00000000000000006044820152606401610195565b6001546004805460405163a9059cbb60e01b8152339281019290925260248201526001600160a01b039091169063a9059cbb906044016020604051808303816000875af11580156103a5573d6000803e3d6000fd5b505050506040513d601f19601f820116820180604052508101906103c991906105cc565b61040e5760405162461bcd60e51b815260206004820152601660248201527546616c6c6f206c61207472616e73666572656e63696160501b6044820152606401610195565b60045460405190815233907f650e45f04ef8a0c267b2f78d983913f69ae3a353b2b32de5429307522be0ab559060200160405180910390a2565b6002546001600160a01b031633146104725760405162461bcd60e51b8152600401610195906105a2565b6001546040516323b872dd60e01b8152336004820152306024820152604481018390526001600160a01b03909116906323b872dd906064016020604051808303816000875af11580156104c9573d6000803e3d6000fd5b505050506040513d601f19601f820116820180604052508101906104ed91906105cc565b6105315760405162461bcd60e51b815260206004820152601560248201527446616c6c6f20616c206465706f7369746172204f4360581b6044820152606401610195565b6040518181527f61d1787896dfd1a6b3a32acc98452f04ce057666fd4bea2cf39bc30fc6087eaa9060200160405180910390a150565b60006020828403121561057957600080fd5b5035919050565b6000806040838503121561059357600080fd5b50508035926020909101359150565b60208082526010908201526f27379032b932b99032b61037bbb732b960811b604082015260600190565b6000602082840312156105de57600080fd5b815180151581146105ee57600080fd5b9392505050565b60006020828403121561060757600080fd5b505191905056fea26474726f6e5822122066d3d6858bb1f16dd0e47b933bea61ca1f653132793fa41e3233b671abc30d9b64736f6c63430008140033",
  "source": "// SPDX-License-Identifier: MIT\npragma solidity ^0.8.20;\n\n\ninterface IToken {\n    function balanceOf(address account) external view returns (uint256);\n    function transfer(address recipient, uint256 amount) external returns (bool);\n    function transferFrom(address sender, address recipient, uint256 amount) external returns (bool);\n}\n\ncontract Airdrop {\n    IToken public OM;  // Token de elegibilidad\n    IToken public OC;  // Token de recompensa\n    address public owner;\n\n    uint256 public minOMRequired = 100 * 10**18; // 100 OM (asumiendo 18 decimales)\n    uint256 public rewardOC = 10 * 10**18; // 10 OC (asumiendo 18 decimales)\n\n    event AirdropClaimed(address indexed user, uint256 amount);\n    event AirdropFunded(uint256 amount);\n\n    modifier onlyOwner() {\n        require(msg.sender == owner, \"No eres el owner\");\n        _;\n    }\n\n    constructor(address _OM, address _OC) {\n        OM = IToken(_OM);\n        OC = IToken(_OC);\n        owner = msg.sender;\n    }\n\n    // 🔹 El owner carga tokens OC al contrato para que los usuarios puedan reclamarlos.\n    function fundAirdrop(uint256 amount) external onlyOwner {\n        require(OC.transferFrom(msg.sender, address(this), amount), \"Fallo al depositar OC\");\n        emit AirdropFunded(amount);\n    }\n\n    // 🔹 Permite a los usuarios reclamar si cumplen con los requisitos.\n    function claimAirdrop() external {\n        require(OM.balanceOf(msg.sender) >= minOMRequired, \"No tienes suficientes OM\");\n        require(OC.transfer(msg.sender, rewardOC), \"Fallo la transferencia\");\n\n        emit AirdropClaimed(msg.sender, rewardOC);\n    }\n\n    // 🔹 Permite al owner retirar tokens OC en caso de que haya sobrado saldo en el pool.\n    function withdrawOC(uint256 amount) external onlyOwner {\n        require(OC.transfer(owner, amount), \"Fallo el retiro de OC\");\n    }\n\n    // 🔹 Permite al owner actualizar los parámetros del airdrop.\n    function updateAirdropParams(uint256 _minOMRequired, uint256 _rewardOC) external onlyOwner {\n        minOMRequired = _minOMRequired;\n        rewardOC = _rewardOC;\n    }\n}\n",
  "sourcePath": "/media/x3at/CRYSTAL REFACTOR/CodeVarious/oxygen-token/contracts/Airdrop.sol",
  "compiler": {
    "name": "solc",
    "version": "0.8.20+commit.5f1834bc.Emscripten.clang"
  },
  "schemaVersion": "2.0.1",
  "updatedAt": "2025-02-14T23:53:27.029Z"
}