{
  "contractName": "OMToken",
  "abi": [
    {
      "inputs": [
        {
          "internalType": "uint256",
          "name": "initialSupply",
          "type": "uint256"
        }
      ],
      "stateMutability": "nonpayable",
      "type": "constructor"
    },
    {
      "anonymous": false,
      "inputs": [
        {
          "indexed": true,
          "internalType": "address",
          "name": "owner",
          "type": "address"
        },
        {
          "indexed": true,
          "internalType": "address",
          "name": "spender",
          "type": "address"
        },
        {
          "indexed": false,
          "internalType": "uint256",
          "name": "value",
          "type": "uint256"
        }
      ],
      "name": "Approval",
      "type": "event"
    },
    {
      "anonymous": false,
      "inputs": [
        {
          "indexed": true,
          "internalType": "address",
          "name": "burner",
          "type": "address"
        },
        {
          "indexed": false,
          "internalType": "uint256",
          "name": "value",
          "type": "uint256"
        }
      ],
      "name": "Burn",
      "type": "event"
    },
    {
      "anonymous": false,
      "inputs": [
        {
          "indexed": true,
          "internalType": "address",
          "name": "previousOwner",
          "type": "address"
        },
        {
          "indexed": true,
          "internalType": "address",
          "name": "newOwner",
          "type": "address"
        }
      ],
      "name": "OwnershipTransferred",
      "type": "event"
    },
    {
      "anonymous": false,
      "inputs": [
        {
          "indexed": false,
          "internalType": "address",
          "name": "account",
          "type": "address"
        }
      ],
      "name": "Paused",
      "type": "event"
    },
    {
      "anonymous": false,
      "inputs": [
        {
          "indexed": true,
          "internalType": "address",
          "name": "from",
          "type": "address"
        },
        {
          "indexed": true,
          "internalType": "address",
          "name": "to",
          "type": "address"
        },
        {
          "indexed": false,
          "internalType": "uint256",
          "name": "value",
          "type": "uint256"
        }
      ],
      "name": "Transfer",
      "type": "event"
    },
    {
      "anonymous": false,
      "inputs": [
        {
          "indexed": false,
          "internalType": "address",
          "name": "account",
          "type": "address"
        }
      ],
      "name": "Unpaused",
      "type": "event"
    },
    {
      "inputs": [
        {
          "internalType": "address",
          "name": "accountOwner",
          "type": "address"
        },
        {
          "internalType": "address",
          "name": "spender",
          "type": "address"
        }
      ],
      "name": "allowance",
      "outputs": [
        {
          "internalType": "uint256",
          "name": "",
          "type": "uint256"
        }
      ],
      "stateMutability": "view",
      "type": "function"
    },
    {
      "inputs": [
        {
          "internalType": "address",
          "name": "spender",
          "type": "address"
        },
        {
          "internalType": "uint256",
          "name": "amount",
          "type": "uint256"
        }
      ],
      "name": "approve",
      "outputs": [
        {
          "internalType": "bool",
          "name": "",
          "type": "bool"
        }
      ],
      "stateMutability": "nonpayable",
      "type": "function"
    },
    {
      "inputs": [
        {
          "internalType": "address",
          "name": "account",
          "type": "address"
        }
      ],
      "name": "balanceOf",
      "outputs": [
        {
          "internalType": "uint256",
          "name": "",
          "type": "uint256"
        }
      ],
      "stateMutability": "view",
      "type": "function"
    },
    {
      "inputs": [
        {
          "internalType": "uint256",
          "name": "amount",
          "type": "uint256"
        }
      ],
      "name": "burn",
      "outputs": [],
      "stateMutability": "nonpayable",
      "type": "function"
    },
    {
      "inputs": [],
      "name": "decimals",
      "outputs": [
        {
          "internalType": "uint8",
          "name": "",
          "type": "uint8"
        }
      ],
      "stateMutability": "view",
      "type": "function"
    },
    {
      "inputs": [
        {
          "internalType": "address",
          "name": "spender",
          "type": "address"
        },
        {
          "internalType": "uint256",
          "name": "subtractedValue",
          "type": "uint256"
        }
      ],
      "name": "decreaseAllowance",
      "outputs": [
        {
          "internalType": "bool",
          "name": "",
          "type": "bool"
        }
      ],
      "stateMutability": "nonpayable",
      "type": "function"
    },
    {
      "inputs": [
        {
          "internalType": "address",
          "name": "spender",
          "type": "address"
        },
        {
          "internalType": "uint256",
          "name": "addedValue",
          "type": "uint256"
        }
      ],
      "name": "increaseAllowance",
      "outputs": [
        {
          "internalType": "bool",
          "name": "",
          "type": "bool"
        }
      ],
      "stateMutability": "nonpayable",
      "type": "function"
    },
    {
      "inputs": [],
      "name": "name",
      "outputs": [
        {
          "internalType": "string",
          "name": "",
          "type": "string"
        }
      ],
      "stateMutability": "view",
      "type": "function"
    },
    {
      "inputs": [],
      "name": "owner",
      "outputs": [
        {
          "internalType": "address",
          "name": "",
          "type": "address"
        }
      ],
      "stateMutability": "view",
      "type": "function"
    },
    {
      "inputs": [],
      "name": "pause",
      "outputs": [],
      "stateMutability": "nonpayable",
      "type": "function"
    },
    {
      "inputs": [],
      "name": "paused",
      "outputs": [
        {
          "internalType": "bool",
          "name": "",
          "type": "bool"
        }
      ],
      "stateMutability": "view",
      "type": "function"
    },
    {
      "inputs": [],
      "name": "symbol",
      "outputs": [
        {
          "internalType": "string",
          "name": "",
          "type": "string"
        }
      ],
      "stateMutability": "view",
      "type": "function"
    },
    {
      "inputs": [],
      "name": "totalSupply",
      "outputs": [
        {
          "internalType": "uint256",
          "name": "",
          "type": "uint256"
        }
      ],
      "stateMutability": "view",
      "type": "function"
    },
    {
      "inputs": [
        {
          "internalType": "address",
          "name": "recipient",
          "type": "address"
        },
        {
          "internalType": "uint256",
          "name": "amount",
          "type": "uint256"
        }
      ],
      "name": "transfer",
      "outputs": [
        {
          "internalType": "bool",
          "name": "",
          "type": "bool"
        }
      ],
      "stateMutability": "nonpayable",
      "type": "function"
    },
    {
      "inputs": [
        {
          "internalType": "address",
          "name": "sender",
          "type": "address"
        },
        {
          "internalType": "address",
          "name": "recipient",
          "type": "address"
        },
        {
          "internalType": "uint256",
          "name": "amount",
          "type": "uint256"
        }
      ],
      "name": "transferFrom",
      "outputs": [
        {
          "internalType": "bool",
          "name": "",
          "type": "bool"
        }
      ],
      "stateMutability": "nonpayable",
      "type": "function"
    },
    {
      "inputs": [
        {
          "internalType": "address",
          "name": "newOwner",
          "type": "address"
        }
      ],
      "name": "transferOwnership",
      "outputs": [],
      "stateMutability": "nonpayable",
      "type": "function"
    },
    {
      "inputs": [],
      "name": "unpause",
      "outputs": [],
      "stateMutability": "nonpayable",
      "type": "function"
    }
  ],
  "bytecode": "0x60806040526000805460ff60a01b191690553480156200001e57600080fd5b50d380156200002c57600080fd5b50d280156200003a57600080fd5b50604051620010c9380380620010c98339810160408190526200005d91620000dd565b600080546001600160a01b031916331790556200007d6006600a6200020c565b62000089908262000221565b600181905533600081815260026020908152604080832085905551938452919290917fddf252ad1be2c89b69c2b068fc378daa952ba7f163c4a11628f55a4df523b3ef910160405180910390a3506200023b565b600060208284031215620000f057600080fd5b5051919050565b634e487b7160e01b600052601160045260246000fd5b600181815b808511156200014e578160001904821115620001325762000132620000f7565b808516156200014057918102915b93841c939080029062000112565b509250929050565b600082620001675750600162000206565b81620001765750600062000206565b81600181146200018f57600281146200019a57620001ba565b600191505062000206565b60ff841115620001ae57620001ae620000f7565b50506001821b62000206565b5060208310610133831016604e8410600b8410161715620001df575081810a62000206565b620001eb83836200010d565b8060001904821115620002025762000202620000f7565b0290505b92915050565b60006200021a838362000156565b9392505050565b8082028115828204841417620002065762000206620000f7565b610e7e806200024b6000396000f3fe608060405234801561001057600080fd5b50d3801561001d57600080fd5b50d2801561002a57600080fd5b50600436106101255760003560e01c80635c975abb116100bc57806395d89b411161008b57806395d89b411461026e578063a457c2d71461028f578063a9059cbb146102a2578063dd62ed3e146102b5578063f2fde38b146102ee57600080fd5b80635c975abb146101fe57806370a08231146102125780638456cb591461023b5780638da5cb5b1461024357600080fd5b8063313ce567116100f8578063313ce567146101b457806339509351146101ce5780633f4ba83a146101e157806342966c68146101eb57600080fd5b806306fdde031461012a578063095ea7b31461016757806318160ddd1461018a57806323b872dd146101a1575b600080fd5b6101516040518060400160405280600881526020016727a6902a37b5b2b760c11b81525081565b60405161015e9190610c1e565b60405180910390f35b61017a610175366004610c94565b610301565b604051901515815260200161015e565b61019360015481565b60405190815260200161015e565b61017a6101af366004610cbe565b61039b565b6101bc600681565b60405160ff909116815260200161015e565b61017a6101dc366004610c94565b6105c5565b6101e961067f565b005b6101e96101f9366004610cfa565b61073c565b60005461017a90600160a01b900460ff1681565b610193610220366004610d13565b6001600160a01b031660009081526002602052604090205490565b6101e961087e565b600054610256906001600160a01b031681565b6040516001600160a01b03909116815260200161015e565b610151604051806040016040528060028152602001614f4d60f01b81525081565b61017a61029d366004610c94565b610915565b61017a6102b0366004610c94565b6109f6565b6101936102c3366004610d35565b6001600160a01b03918216600090815260036020908152604080832093909416825291909152205490565b6101e96102fc366004610d13565b610b34565b60008054600160a01b900460ff16156103355760405162461bcd60e51b815260040161032c90610d68565b60405180910390fd5b3360008181526003602090815260408083206001600160a01b03881680855290835292819020869055518581529192917f8c5be1e5ebec7d5bd14f71427d1e84f3dd0314c0f7b2291e5b200ac8c7c3b92591015b60405180910390a35060015b92915050565b60008054600160a01b900460ff16156103c65760405162461bcd60e51b815260040161032c90610d68565b6001600160a01b0383166103ec5760405162461bcd60e51b815260040161032c90610d92565b6001600160a01b0384166000908152600260205260409020548211156104545760405162461bcd60e51b815260206004820152601d60248201527f4f4d546f6b656e3a20696e73756666696369656e742062616c616e6365000000604482015260640161032c565b6001600160a01b03841660009081526003602090815260408083203384529091529020548211156104da5760405162461bcd60e51b815260206004820152602a60248201527f4f4d546f6b656e3a207472616e7366657220616d6f756e74206578636565647360448201526920616c6c6f77616e636560b01b606482015260840161032c565b6001600160a01b03841660009081526002602052604081208054849290610502908490610ded565b90915550506001600160a01b0383166000908152600260205260408120805484929061052f908490610e00565b90915550506001600160a01b038416600090815260036020908152604080832033845290915281208054849290610567908490610ded565b92505081905550826001600160a01b0316846001600160a01b03167fddf252ad1be2c89b69c2b068fc378daa952ba7f163c4a11628f55a4df523b3ef846040516105b391815260200190565b60405180910390a35060019392505050565b60008054600160a01b900460ff16156105f05760405162461bcd60e51b815260040161032c90610d68565b3360009081526003602090815260408083206001600160a01b038716845290915281208054849290610623908490610e00565b90915550503360008181526003602090815260408083206001600160a01b038816808552908352928190205490519081529192917f8c5be1e5ebec7d5bd14f71427d1e84f3dd0314c0f7b2291e5b200ac8c7c3b9259101610389565b6000546001600160a01b031633146106a95760405162461bcd60e51b815260040161032c90610e13565b600054600160a01b900460ff166106f95760405162461bcd60e51b815260206004820152601460248201527314185d5cd8589b194e881b9bdd081c185d5cd95960621b604482015260640161032c565b6000805460ff60a01b191690556040513381527f5db9ee0a495bf2e6ff9c91a7834c1ba4fdd244a5e8aa4e537bd38aeae4b073aa906020015b60405180910390a1565b600054600160a01b900460ff16156107665760405162461bcd60e51b815260040161032c90610d68565b336000908152600260205260409020548111156107d15760405162461bcd60e51b8152602060048201526024808201527f4f4d546f6b656e3a206275726e20616d6f756e7420657863656564732062616c604482015263616e636560e01b606482015260840161032c565b33600090815260026020526040812080548392906107f0908490610ded565b9250508190555080600160008282546108099190610ded565b909155505060405181815233907fcc16f5dbb4873280815c1ee09dbd06736cffcc184412cf7a71a0fdb75d397ca59060200160405180910390a260405181815260009033907fddf252ad1be2c89b69c2b068fc378daa952ba7f163c4a11628f55a4df523b3ef9060200160405180910390a350565b6000546001600160a01b031633146108a85760405162461bcd60e51b815260040161032c90610e13565b600054600160a01b900460ff16156108d25760405162461bcd60e51b815260040161032c90610d68565b6000805460ff60a01b1916600160a01b1790556040513381527f62e78cea01bee320cd4e420270b5ea74000d11b0c9f74754ebdbfc544b05a25890602001610732565b60008054600160a01b900460ff16156109405760405162461bcd60e51b815260040161032c90610d68565b3360009081526003602090815260408083206001600160a01b03871684529091529020548211156109c35760405162461bcd60e51b815260206004820152602760248201527f4f4d546f6b656e3a2064656372656173656420616c6c6f77616e63652062656c6044820152666f77207a65726f60c81b606482015260840161032c565b3360009081526003602090815260408083206001600160a01b038716845290915281208054849290610623908490610ded565b60008054600160a01b900460ff1615610a215760405162461bcd60e51b815260040161032c90610d68565b6001600160a01b038316610a475760405162461bcd60e51b815260040161032c90610d92565b33600090815260026020526040902054821115610aa65760405162461bcd60e51b815260206004820152601d60248201527f4f4d546f6b656e3a20696e73756666696369656e742062616c616e6365000000604482015260640161032c565b3360009081526002602052604081208054849290610ac5908490610ded565b90915550506001600160a01b03831660009081526002602052604081208054849290610af2908490610e00565b90915550506040518281526001600160a01b0384169033907fddf252ad1be2c89b69c2b068fc378daa952ba7f163c4a11628f55a4df523b3ef90602001610389565b6000546001600160a01b03163314610b5e5760405162461bcd60e51b815260040161032c90610e13565b6001600160a01b038116610bc35760405162461bcd60e51b815260206004820152602660248201527f4f776e61626c653a206e6577206f776e657220697320746865207a65726f206160448201526564647265737360d01b606482015260840161032c565b600080546040516001600160a01b03808516939216917f8be0079c531659141344cd1fd0a4f28419497f9722a3daafe3b4186f6b6457e091a3600080546001600160a01b0319166001600160a01b0392909216919091179055565b600060208083528351808285015260005b81811015610c4b57858101830151858201604001528201610c2f565b506000604082860101526040601f19601f8301168501019250505092915050565b600081356001600160a81b0381168114610c8557600080fd5b6001600160a01b031692915050565b60008060408385031215610ca757600080fd5b610cb083610c6c565b946020939093013593505050565b600080600060608486031215610cd357600080fd5b610cdc84610c6c565b9250610cea60208501610c6c565b9150604084013590509250925092565b600060208284031215610d0c57600080fd5b5035919050565b600060208284031215610d2557600080fd5b610d2e82610c6c565b9392505050565b60008060408385031215610d4857600080fd5b610d5183610c6c565b9150610d5f60208401610c6c565b90509250929050565b60208082526010908201526f14185d5cd8589b194e881c185d5cd95960821b604082015260600190565b60208082526025908201527f4f4d546f6b656e3a207472616e7366657220746f20746865207a65726f206164604082015264647265737360d81b606082015260800190565b634e487b7160e01b600052601160045260246000fd5b8181038181111561039557610395610dd7565b8082018082111561039557610395610dd7565b6020808252818101527f4f776e61626c653a2063616c6c6572206973206e6f7420746865206f776e657260408201526060019056fea26474726f6e58221220c4db60717ff9e6e5a98e468369f1003d1a0fa48e3ced7693b2a202df032c514264736f6c63430008140033",
  "source": "// SPDX-License-Identifier: UNLICENSED\npragma solidity ^0.8.20;\n\nimport './OCToken.sol';\n\n\ncontract OMToken is Ownable, Pausable {\n    string public constant name = \"OM Token\";\n    string public constant symbol = \"OM\";\n    uint8 public constant decimals = 6;\n    uint256 public totalSupply;\n    event Burn(address indexed burner, uint256 value);\n\n    mapping(address => uint256) private balances;\n    mapping(address => mapping(address => uint256)) private allowances;\n\n    event Transfer(address indexed from, address indexed to, uint256 value);\n    event Approval(address indexed owner, address indexed spender, uint256 value);\n\n    constructor(uint256 initialSupply) {\n        totalSupply = initialSupply * 10 ** uint256(decimals);\n        balances[msg.sender] = totalSupply;\n        emit Transfer(address(0), msg.sender, totalSupply);\n    }\n\n    function balanceOf(address account) public view returns (uint256) {\n        return balances[account];\n    }\n\n    function transfer(address recipient, uint256 amount) public whenNotPaused returns (bool) {\n        require(recipient != address(0), \"OMToken: transfer to the zero address\");\n        require(balances[msg.sender] >= amount, \"OMToken: insufficient balance\");\n\n        balances[msg.sender] -= amount;\n        balances[recipient] += amount;\n        emit Transfer(msg.sender, recipient, amount);\n        return true;\n    }\n\n    function approve(address spender, uint256 amount) public whenNotPaused returns (bool) {\n        allowances[msg.sender][spender] = amount;\n        emit Approval(msg.sender, spender, amount);\n        return true;\n    }\n\n    function transferFrom(address sender, address recipient, uint256 amount) public whenNotPaused returns (bool) {\n        require(recipient != address(0), \"OMToken: transfer to the zero address\");\n        require(balances[sender] >= amount, \"OMToken: insufficient balance\");\n        require(allowances[sender][msg.sender] >= amount, \"OMToken: transfer amount exceeds allowance\");\n\n        balances[sender] -= amount;\n        balances[recipient] += amount;\n        allowances[sender][msg.sender] -= amount;\n        emit Transfer(sender, recipient, amount);\n        return true;\n    }\n\n    function allowance(address accountOwner, address spender) public view returns (uint256) {\n        return allowances[accountOwner][spender];\n    }\n\n    function increaseAllowance(address spender, uint256 addedValue) public whenNotPaused returns (bool) {\n        allowances[msg.sender][spender] += addedValue;\n        emit Approval(msg.sender, spender, allowances[msg.sender][spender]);\n        return true;\n    }\n\n    function decreaseAllowance(address spender, uint256 subtractedValue) public whenNotPaused returns (bool) {\n        require(allowances[msg.sender][spender] >= subtractedValue, \"OMToken: decreased allowance below zero\");\n        allowances[msg.sender][spender] -= subtractedValue;\n        emit Approval(msg.sender, spender, allowances[msg.sender][spender]);\n        return true;\n    }\n\n    function burn(uint256 amount) public whenNotPaused {\n        require(balances[msg.sender] >= amount, \"OMToken: burn amount exceeds balance\");\n\n        balances[msg.sender] -= amount;\n        totalSupply -= amount;\n\n        emit Burn(msg.sender, amount);\n        emit Transfer(msg.sender, address(0), amount);\n    }\n}\n",
  "sourcePath": "/media/x3at/CRYSTAL REFACTOR/CodeVarious/oxygen-token/contracts/OMToken.sol",
  "compiler": {
    "name": "solc",
    "version": "0.8.20+commit.5f1834bc.Emscripten.clang"
  },
  "schemaVersion": "2.0.1",
  "updatedAt": "2025-02-14T23:53:27.040Z"
}