{
  "contractName": "OMToken",
  "abi": [
    {
      "inputs": [
        {
          "internalType": "uint256",
          "name": "initialSupply",
          "type": "uint256"
        }
      ],
      "stateMutability": "nonpayable",
      "type": "constructor"
    },
    {
      "anonymous": false,
      "inputs": [
        {
          "indexed": true,
          "internalType": "address",
          "name": "owner",
          "type": "address"
        },
        {
          "indexed": true,
          "internalType": "address",
          "name": "spender",
          "type": "address"
        },
        {
          "indexed": false,
          "internalType": "uint256",
          "name": "value",
          "type": "uint256"
        }
      ],
      "name": "Approval",
      "type": "event"
    },
    {
      "anonymous": false,
      "inputs": [
        {
          "indexed": true,
          "internalType": "address",
          "name": "previousOwner",
          "type": "address"
        },
        {
          "indexed": true,
          "internalType": "address",
          "name": "newOwner",
          "type": "address"
        }
      ],
      "name": "OwnershipTransferred",
      "type": "event"
    },
    {
      "anonymous": false,
      "inputs": [
        {
          "indexed": false,
          "internalType": "address",
          "name": "account",
          "type": "address"
        }
      ],
      "name": "Paused",
      "type": "event"
    },
    {
      "anonymous": false,
      "inputs": [
        {
          "indexed": true,
          "internalType": "address",
          "name": "from",
          "type": "address"
        },
        {
          "indexed": true,
          "internalType": "address",
          "name": "to",
          "type": "address"
        },
        {
          "indexed": false,
          "internalType": "uint256",
          "name": "value",
          "type": "uint256"
        }
      ],
      "name": "Transfer",
      "type": "event"
    },
    {
      "anonymous": false,
      "inputs": [
        {
          "indexed": false,
          "internalType": "address",
          "name": "account",
          "type": "address"
        }
      ],
      "name": "Unpaused",
      "type": "event"
    },
    {
      "inputs": [
        {
          "internalType": "address",
          "name": "accountOwner",
          "type": "address"
        },
        {
          "internalType": "address",
          "name": "spender",
          "type": "address"
        }
      ],
      "name": "allowance",
      "outputs": [
        {
          "internalType": "uint256",
          "name": "",
          "type": "uint256"
        }
      ],
      "stateMutability": "view",
      "type": "function"
    },
    {
      "inputs": [
        {
          "internalType": "address",
          "name": "spender",
          "type": "address"
        },
        {
          "internalType": "uint256",
          "name": "amount",
          "type": "uint256"
        }
      ],
      "name": "approve",
      "outputs": [
        {
          "internalType": "bool",
          "name": "",
          "type": "bool"
        }
      ],
      "stateMutability": "nonpayable",
      "type": "function"
    },
    {
      "inputs": [
        {
          "internalType": "address",
          "name": "account",
          "type": "address"
        }
      ],
      "name": "balanceOf",
      "outputs": [
        {
          "internalType": "uint256",
          "name": "",
          "type": "uint256"
        }
      ],
      "stateMutability": "view",
      "type": "function"
    },
    {
      "inputs": [],
      "name": "decimals",
      "outputs": [
        {
          "internalType": "uint8",
          "name": "",
          "type": "uint8"
        }
      ],
      "stateMutability": "view",
      "type": "function"
    },
    {
      "inputs": [
        {
          "internalType": "address",
          "name": "spender",
          "type": "address"
        },
        {
          "internalType": "uint256",
          "name": "subtractedValue",
          "type": "uint256"
        }
      ],
      "name": "decreaseAllowance",
      "outputs": [
        {
          "internalType": "bool",
          "name": "",
          "type": "bool"
        }
      ],
      "stateMutability": "nonpayable",
      "type": "function"
    },
    {
      "inputs": [
        {
          "internalType": "address",
          "name": "spender",
          "type": "address"
        },
        {
          "internalType": "uint256",
          "name": "addedValue",
          "type": "uint256"
        }
      ],
      "name": "increaseAllowance",
      "outputs": [
        {
          "internalType": "bool",
          "name": "",
          "type": "bool"
        }
      ],
      "stateMutability": "nonpayable",
      "type": "function"
    },
    {
      "inputs": [],
      "name": "name",
      "outputs": [
        {
          "internalType": "string",
          "name": "",
          "type": "string"
        }
      ],
      "stateMutability": "view",
      "type": "function"
    },
    {
      "inputs": [],
      "name": "owner",
      "outputs": [
        {
          "internalType": "address",
          "name": "",
          "type": "address"
        }
      ],
      "stateMutability": "view",
      "type": "function"
    },
    {
      "inputs": [],
      "name": "pause",
      "outputs": [],
      "stateMutability": "nonpayable",
      "type": "function"
    },
    {
      "inputs": [],
      "name": "paused",
      "outputs": [
        {
          "internalType": "bool",
          "name": "",
          "type": "bool"
        }
      ],
      "stateMutability": "view",
      "type": "function"
    },
    {
      "inputs": [],
      "name": "symbol",
      "outputs": [
        {
          "internalType": "string",
          "name": "",
          "type": "string"
        }
      ],
      "stateMutability": "view",
      "type": "function"
    },
    {
      "inputs": [],
      "name": "totalSupply",
      "outputs": [
        {
          "internalType": "uint256",
          "name": "",
          "type": "uint256"
        }
      ],
      "stateMutability": "view",
      "type": "function"
    },
    {
      "inputs": [
        {
          "internalType": "address",
          "name": "recipient",
          "type": "address"
        },
        {
          "internalType": "uint256",
          "name": "amount",
          "type": "uint256"
        }
      ],
      "name": "transfer",
      "outputs": [
        {
          "internalType": "bool",
          "name": "",
          "type": "bool"
        }
      ],
      "stateMutability": "nonpayable",
      "type": "function"
    },
    {
      "inputs": [
        {
          "internalType": "address",
          "name": "sender",
          "type": "address"
        },
        {
          "internalType": "address",
          "name": "recipient",
          "type": "address"
        },
        {
          "internalType": "uint256",
          "name": "amount",
          "type": "uint256"
        }
      ],
      "name": "transferFrom",
      "outputs": [
        {
          "internalType": "bool",
          "name": "",
          "type": "bool"
        }
      ],
      "stateMutability": "nonpayable",
      "type": "function"
    },
    {
      "inputs": [
        {
          "internalType": "address",
          "name": "newOwner",
          "type": "address"
        }
      ],
      "name": "transferOwnership",
      "outputs": [],
      "stateMutability": "nonpayable",
      "type": "function"
    },
    {
      "inputs": [],
      "name": "unpause",
      "outputs": [],
      "stateMutability": "nonpayable",
      "type": "function"
    }
  ],
  "bytecode": "0x60806040525f8060146101000a81548160ff02191690831515021790555034801562000029575f80fd5b5060405162001fe238038062001fe283398181016040528101906200004f9190620001a4565b335f806101000a81548173ffffffffffffffffffffffffffffffffffffffff021916908373ffffffffffffffffffffffffffffffffffffffff160217905550600660ff16600a620000a1919062000351565b81620000ae9190620003a1565b60018190555060015460025f3373ffffffffffffffffffffffffffffffffffffffff1673ffffffffffffffffffffffffffffffffffffffff1681526020019081526020015f20819055503373ffffffffffffffffffffffffffffffffffffffff165f73ffffffffffffffffffffffffffffffffffffffff167fddf252ad1be2c89b69c2b068fc378daa952ba7f163c4a11628f55a4df523b3ef600154604051620001599190620003fc565b60405180910390a35062000417565b5f80fd5b5f819050919050565b62000180816200016c565b81146200018b575f80fd5b50565b5f815190506200019e8162000175565b92915050565b5f60208284031215620001bc57620001bb62000168565b5b5f620001cb848285016200018e565b91505092915050565b7f4e487b71000000000000000000000000000000000000000000000000000000005f52601160045260245ffd5b5f8160011c9050919050565b5f808291508390505b60018511156200025e57808604811115620002365762000235620001d4565b5b6001851615620002465780820291505b8081029050620002568562000201565b945062000216565b94509492505050565b5f826200027857600190506200034a565b8162000287575f90506200034a565b8160018114620002a05760028114620002ab57620002e1565b60019150506200034a565b60ff841115620002c057620002bf620001d4565b5b8360020a915084821115620002da57620002d9620001d4565b5b506200034a565b5060208310610133831016604e8410600b84101617156200031b5782820a905083811115620003155762000314620001d4565b5b6200034a565b6200032a84848460016200020d565b92509050818404811115620003445762000343620001d4565b5b81810290505b9392505050565b5f6200035d826200016c565b91506200036a836200016c565b9250620003997fffffffffffffffffffffffffffffffffffffffffffffffffffffffffffffffff848462000267565b905092915050565b5f620003ad826200016c565b9150620003ba836200016c565b9250828202620003ca816200016c565b91508282048414831517620003e457620003e3620001d4565b5b5092915050565b620003f6816200016c565b82525050565b5f602082019050620004115f830184620003eb565b92915050565b611bbd80620004255f395ff3fe608060405234801561000f575f80fd5b50600436106100fe575f3560e01c806370a0823111610095578063a457c2d711610064578063a457c2d71461028a578063a9059cbb146102ba578063dd62ed3e146102ea578063f2fde38b1461031a576100fe565b806370a08231146102145780638456cb59146102445780638da5cb5b1461024e57806395d89b411461026c576100fe565b8063313ce567116100d1578063313ce5671461019e57806339509351146101bc5780633f4ba83a146101ec5780635c975abb146101f6576100fe565b806306fdde0314610102578063095ea7b31461012057806318160ddd1461015057806323b872dd1461016e575b5f80fd5b61010a610336565b60405161011791906114bd565b60405180910390f35b61013a6004803603810190610135919061156e565b61036f565b60405161014791906115c6565b60405180910390f35b6101586104ab565b60405161016591906115ee565b60405180910390f35b61018860048036038101906101839190611607565b6104b1565b60405161019591906115c6565b60405180910390f35b6101a661084e565b6040516101b39190611672565b60405180910390f35b6101d660048036038101906101d1919061156e565b610853565b6040516101e391906115c6565b60405180910390f35b6101f4610a18565b005b6101fe610b45565b60405161020b91906115c6565b60405180910390f35b61022e6004803603810190610229919061168b565b610b57565b60405161023b91906115ee565b60405180910390f35b61024c610b9d565b005b610256610ccc565b60405161026391906116c5565b60405180910390f35b610274610cef565b60405161028191906114bd565b60405180910390f35b6102a4600480360381019061029f919061156e565b610d28565b6040516102b191906115c6565b60405180910390f35b6102d460048036038101906102cf919061156e565b610fa8565b6040516102e191906115c6565b60405180910390f35b61030460048036038101906102ff91906116de565b6111fb565b60405161031191906115ee565b60405180910390f35b610334600480360381019061032f919061168b565b61127d565b005b6040518060400160405280600881526020017f4f4d20546f6b656e00000000000000000000000000000000000000000000000081525081565b5f8060149054906101000a900460ff16156103bf576040517f08c379a00000000000000000000000000000000000000000000000000000000081526004016103b690611766565b60405180910390fd5b8160035f3373ffffffffffffffffffffffffffffffffffffffff1673ffffffffffffffffffffffffffffffffffffffff1681526020019081526020015f205f8573ffffffffffffffffffffffffffffffffffffffff1673ffffffffffffffffffffffffffffffffffffffff1681526020019081526020015f20819055508273ffffffffffffffffffffffffffffffffffffffff163373ffffffffffffffffffffffffffffffffffffffff167f8c5be1e5ebec7d5bd14f71427d1e84f3dd0314c0f7b2291e5b200ac8c7c3b9258460405161049991906115ee565b60405180910390a36001905092915050565b60015481565b5f8060149054906101000a900460ff1615610501576040517f08c379a00000000000000000000000000000000000000000000000000000000081526004016104f890611766565b60405180910390fd5b5f73ffffffffffffffffffffffffffffffffffffffff168373ffffffffffffffffffffffffffffffffffffffff160361056f576040517f08c379a0000000000000000000000000000000000000000000000000000000008152600401610566906117f4565b60405180910390fd5b8160025f8673ffffffffffffffffffffffffffffffffffffffff1673ffffffffffffffffffffffffffffffffffffffff1681526020019081526020015f205410156105ef576040517f08c379a00000000000000000000000000000000000000000000000000000000081526004016105e69061185c565b60405180910390fd5b8160035f8673ffffffffffffffffffffffffffffffffffffffff1673ffffffffffffffffffffffffffffffffffffffff1681526020019081526020015f205f3373ffffffffffffffffffffffffffffffffffffffff1673ffffffffffffffffffffffffffffffffffffffff1681526020019081526020015f205410156106aa576040517f08c379a00000000000000000000000000000000000000000000000000000000081526004016106a1906118ea565b60405180910390fd5b8160025f8673ffffffffffffffffffffffffffffffffffffffff1673ffffffffffffffffffffffffffffffffffffffff1681526020019081526020015f205f8282546106f69190611935565b925050819055508160025f8573ffffffffffffffffffffffffffffffffffffffff1673ffffffffffffffffffffffffffffffffffffffff1681526020019081526020015f205f8282546107499190611968565b925050819055508160035f8673ffffffffffffffffffffffffffffffffffffffff1673ffffffffffffffffffffffffffffffffffffffff1681526020019081526020015f205f3373ffffffffffffffffffffffffffffffffffffffff1673ffffffffffffffffffffffffffffffffffffffff1681526020019081526020015f205f8282546107d79190611935565b925050819055508273ffffffffffffffffffffffffffffffffffffffff168473ffffffffffffffffffffffffffffffffffffffff167fddf252ad1be2c89b69c2b068fc378daa952ba7f163c4a11628f55a4df523b3ef8460405161083b91906115ee565b60405180910390a3600190509392505050565b600681565b5f8060149054906101000a900460ff16156108a3576040517f08c379a000000000000000000000000000000000000000000000000000000000815260040161089a90611766565b60405180910390fd5b8160035f3373ffffffffffffffffffffffffffffffffffffffff1673ffffffffffffffffffffffffffffffffffffffff1681526020019081526020015f205f8573ffffffffffffffffffffffffffffffffffffffff1673ffffffffffffffffffffffffffffffffffffffff1681526020019081526020015f205f82825461092a9190611968565b925050819055508273ffffffffffffffffffffffffffffffffffffffff163373ffffffffffffffffffffffffffffffffffffffff167f8c5be1e5ebec7d5bd14f71427d1e84f3dd0314c0f7b2291e5b200ac8c7c3b92560035f3373ffffffffffffffffffffffffffffffffffffffff1673ffffffffffffffffffffffffffffffffffffffff1681526020019081526020015f205f8773ffffffffffffffffffffffffffffffffffffffff1673ffffffffffffffffffffffffffffffffffffffff1681526020019081526020015f2054604051610a0691906115ee565b60405180910390a36001905092915050565b5f8054906101000a900473ffffffffffffffffffffffffffffffffffffffff1673ffffffffffffffffffffffffffffffffffffffff163373ffffffffffffffffffffffffffffffffffffffff1614610aa5576040517f08c379a0000000000000000000000000000000000000000000000000000000008152600401610a9c906119e5565b60405180910390fd5b5f60149054906101000a900460ff16610af3576040517f08c379a0000000000000000000000000000000000000000000000000000000008152600401610aea90611a4d565b60405180910390fd5b5f8060146101000a81548160ff0219169083151502179055507f5db9ee0a495bf2e6ff9c91a7834c1ba4fdd244a5e8aa4e537bd38aeae4b073aa33604051610b3b91906116c5565b60405180910390a1565b5f60149054906101000a900460ff1681565b5f60025f8373ffffffffffffffffffffffffffffffffffffffff1673ffffffffffffffffffffffffffffffffffffffff1681526020019081526020015f20549050919050565b5f8054906101000a900473ffffffffffffffffffffffffffffffffffffffff1673ffffffffffffffffffffffffffffffffffffffff163373ffffffffffffffffffffffffffffffffffffffff1614610c2a576040517f08c379a0000000000000000000000000000000000000000000000000000000008152600401610c21906119e5565b60405180910390fd5b5f60149054906101000a900460ff1615610c79576040517f08c379a0000000000000000000000000000000000000000000000000000000008152600401610c7090611766565b60405180910390fd5b60015f60146101000a81548160ff0219169083151502179055507f62e78cea01bee320cd4e420270b5ea74000d11b0c9f74754ebdbfc544b05a25833604051610cc291906116c5565b60405180910390a1565b5f8054906101000a900473ffffffffffffffffffffffffffffffffffffffff1681565b6040518060400160405280600281526020017f4f4d00000000000000000000000000000000000000000000000000000000000081525081565b5f8060149054906101000a900460ff1615610d78576040517f08c379a0000000000000000000000000000000000000000000000000000000008152600401610d6f90611766565b60405180910390fd5b8160035f3373ffffffffffffffffffffffffffffffffffffffff1673ffffffffffffffffffffffffffffffffffffffff1681526020019081526020015f205f8573ffffffffffffffffffffffffffffffffffffffff1673ffffffffffffffffffffffffffffffffffffffff1681526020019081526020015f20541015610e33576040517f08c379a0000000000000000000000000000000000000000000000000000000008152600401610e2a90611adb565b60405180910390fd5b8160035f3373ffffffffffffffffffffffffffffffffffffffff1673ffffffffffffffffffffffffffffffffffffffff1681526020019081526020015f205f8573ffffffffffffffffffffffffffffffffffffffff1673ffffffffffffffffffffffffffffffffffffffff1681526020019081526020015f205f828254610eba9190611935565b925050819055508273ffffffffffffffffffffffffffffffffffffffff163373ffffffffffffffffffffffffffffffffffffffff167f8c5be1e5ebec7d5bd14f71427d1e84f3dd0314c0f7b2291e5b200ac8c7c3b92560035f3373ffffffffffffffffffffffffffffffffffffffff1673ffffffffffffffffffffffffffffffffffffffff1681526020019081526020015f205f8773ffffffffffffffffffffffffffffffffffffffff1673ffffffffffffffffffffffffffffffffffffffff1681526020019081526020015f2054604051610f9691906115ee565b60405180910390a36001905092915050565b5f8060149054906101000a900460ff1615610ff8576040517f08c379a0000000000000000000000000000000000000000000000000000000008152600401610fef90611766565b60405180910390fd5b5f73ffffffffffffffffffffffffffffffffffffffff168373ffffffffffffffffffffffffffffffffffffffff1603611066576040517f08c379a000000000000000000000000000000000000000000000000000000000815260040161105d906117f4565b60405180910390fd5b8160025f3373ffffffffffffffffffffffffffffffffffffffff1673ffffffffffffffffffffffffffffffffffffffff1681526020019081526020015f205410156110e6576040517f08c379a00000000000000000000000000000000000000000000000000000000081526004016110dd9061185c565b60405180910390fd5b8160025f3373ffffffffffffffffffffffffffffffffffffffff1673ffffffffffffffffffffffffffffffffffffffff1681526020019081526020015f205f8282546111329190611935565b925050819055508160025f8573ffffffffffffffffffffffffffffffffffffffff1673ffffffffffffffffffffffffffffffffffffffff1681526020019081526020015f205f8282546111859190611968565b925050819055508273ffffffffffffffffffffffffffffffffffffffff163373ffffffffffffffffffffffffffffffffffffffff167fddf252ad1be2c89b69c2b068fc378daa952ba7f163c4a11628f55a4df523b3ef846040516111e991906115ee565b60405180910390a36001905092915050565b5f60035f8473ffffffffffffffffffffffffffffffffffffffff1673ffffffffffffffffffffffffffffffffffffffff1681526020019081526020015f205f8373ffffffffffffffffffffffffffffffffffffffff1673ffffffffffffffffffffffffffffffffffffffff1681526020019081526020015f2054905092915050565b5f8054906101000a900473ffffffffffffffffffffffffffffffffffffffff1673ffffffffffffffffffffffffffffffffffffffff163373ffffffffffffffffffffffffffffffffffffffff161461130a576040517f08c379a0000000000000000000000000000000000000000000000000000000008152600401611301906119e5565b60405180910390fd5b5f73ffffffffffffffffffffffffffffffffffffffff168173ffffffffffffffffffffffffffffffffffffffff1603611378576040517f08c379a000000000000000000000000000000000000000000000000000000000815260040161136f90611b69565b60405180910390fd5b8073ffffffffffffffffffffffffffffffffffffffff165f8054906101000a900473ffffffffffffffffffffffffffffffffffffffff1673ffffffffffffffffffffffffffffffffffffffff167f8be0079c531659141344cd1fd0a4f28419497f9722a3daafe3b4186f6b6457e060405160405180910390a3805f806101000a81548173ffffffffffffffffffffffffffffffffffffffff021916908373ffffffffffffffffffffffffffffffffffffffff16021790555050565b5f81519050919050565b5f82825260208201905092915050565b5f5b8381101561146a57808201518184015260208101905061144f565b5f8484015250505050565b5f601f19601f8301169050919050565b5f61148f82611433565b611499818561143d565b93506114a981856020860161144d565b6114b281611475565b840191505092915050565b5f6020820190508181035f8301526114d58184611485565b905092915050565b5f80fd5b5f73ffffffffffffffffffffffffffffffffffffffff82169050919050565b5f61150a826114e1565b9050919050565b61151a81611500565b8114611524575f80fd5b50565b5f8135905061153581611511565b92915050565b5f819050919050565b61154d8161153b565b8114611557575f80fd5b50565b5f8135905061156881611544565b92915050565b5f8060408385031215611584576115836114dd565b5b5f61159185828601611527565b92505060206115a28582860161155a565b9150509250929050565b5f8115159050919050565b6115c0816115ac565b82525050565b5f6020820190506115d95f8301846115b7565b92915050565b6115e88161153b565b82525050565b5f6020820190506116015f8301846115df565b92915050565b5f805f6060848603121561161e5761161d6114dd565b5b5f61162b86828701611527565b935050602061163c86828701611527565b925050604061164d8682870161155a565b9150509250925092565b5f60ff82169050919050565b61166c81611657565b82525050565b5f6020820190506116855f830184611663565b92915050565b5f602082840312156116a05761169f6114dd565b5b5f6116ad84828501611527565b91505092915050565b6116bf81611500565b82525050565b5f6020820190506116d85f8301846116b6565b92915050565b5f80604083850312156116f4576116f36114dd565b5b5f61170185828601611527565b925050602061171285828601611527565b9150509250929050565b7f5061757361626c653a20706175736564000000000000000000000000000000005f82015250565b5f61175060108361143d565b915061175b8261171c565b602082019050919050565b5f6020820190508181035f83015261177d81611744565b9050919050565b7f4f4d546f6b656e3a207472616e7366657220746f20746865207a65726f2061645f8201527f6472657373000000000000000000000000000000000000000000000000000000602082015250565b5f6117de60258361143d565b91506117e982611784565b604082019050919050565b5f6020820190508181035f83015261180b816117d2565b9050919050565b7f4f4d546f6b656e3a20696e73756666696369656e742062616c616e63650000005f82015250565b5f611846601d8361143d565b915061185182611812565b602082019050919050565b5f6020820190508181035f8301526118738161183a565b9050919050565b7f4f4d546f6b656e3a207472616e7366657220616d6f756e7420657863656564735f8201527f20616c6c6f77616e636500000000000000000000000000000000000000000000602082015250565b5f6118d4602a8361143d565b91506118df8261187a565b604082019050919050565b5f6020820190508181035f830152611901816118c8565b9050919050565b7f4e487b71000000000000000000000000000000000000000000000000000000005f52601160045260245ffd5b5f61193f8261153b565b915061194a8361153b565b925082820390508181111561196257611961611908565b5b92915050565b5f6119728261153b565b915061197d8361153b565b925082820190508082111561199557611994611908565b5b92915050565b7f4f776e61626c653a2063616c6c6572206973206e6f7420746865206f776e65725f82015250565b5f6119cf60208361143d565b91506119da8261199b565b602082019050919050565b5f6020820190508181035f8301526119fc816119c3565b9050919050565b7f5061757361626c653a206e6f74207061757365640000000000000000000000005f82015250565b5f611a3760148361143d565b9150611a4282611a03565b602082019050919050565b5f6020820190508181035f830152611a6481611a2b565b9050919050565b7f4f4d546f6b656e3a2064656372656173656420616c6c6f77616e63652062656c5f8201527f6f77207a65726f00000000000000000000000000000000000000000000000000602082015250565b5f611ac560278361143d565b9150611ad082611a6b565b604082019050919050565b5f6020820190508181035f830152611af281611ab9565b9050919050565b7f4f776e61626c653a206e6577206f776e657220697320746865207a65726f20615f8201527f6464726573730000000000000000000000000000000000000000000000000000602082015250565b5f611b5360268361143d565b9150611b5e82611af9565b604082019050919050565b5f6020820190508181035f830152611b8081611b47565b905091905056fea26469706673582212203b03d89bdc5df32d6599f563739639d637b3e0cc27db6a3eb672c57bc6c28d9664736f6c63430008140033",
  "source": "// SPDX-License-Identifier: UNLICENSED\r\npragma solidity ^0.8.20;\r\n\r\nimport './OCToken.sol';\r\n\r\ncontract OMToken is Ownable, Pausable {\r\n    string public constant name = \"OM Token\";\r\n    string public constant symbol = \"OM\";\r\n    uint8 public constant decimals = 6;\r\n    uint256 public totalSupply;\r\n\r\n    mapping(address => uint256) private balances;\r\n    mapping(address => mapping(address => uint256)) private allowances;\r\n\r\n    event Transfer(address indexed from, address indexed to, uint256 value);\r\n    event Approval(address indexed owner, address indexed spender, uint256 value);\r\n\r\n    constructor(uint256 initialSupply) {\r\n        totalSupply = initialSupply * 10 ** uint256(decimals);\r\n        balances[msg.sender] = totalSupply;\r\n        emit Transfer(address(0), msg.sender, totalSupply);\r\n    }\r\n\r\n    function balanceOf(address account) public view returns (uint256) {\r\n        return balances[account];\r\n    }\r\n\r\n    function transfer(address recipient, uint256 amount) public whenNotPaused returns (bool) {\r\n        require(recipient != address(0), \"OMToken: transfer to the zero address\");\r\n        require(balances[msg.sender] >= amount, \"OMToken: insufficient balance\");\r\n\r\n        balances[msg.sender] -= amount;\r\n        balances[recipient] += amount;\r\n        emit Transfer(msg.sender, recipient, amount);\r\n        return true;\r\n    }\r\n\r\n    function approve(address spender, uint256 amount) public whenNotPaused returns (bool) {\r\n        allowances[msg.sender][spender] = amount;\r\n        emit Approval(msg.sender, spender, amount);\r\n        return true;\r\n    }\r\n\r\n    function transferFrom(address sender, address recipient, uint256 amount) public whenNotPaused returns (bool) {\r\n        require(recipient != address(0), \"OMToken: transfer to the zero address\");\r\n        require(balances[sender] >= amount, \"OMToken: insufficient balance\");\r\n        require(allowances[sender][msg.sender] >= amount, \"OMToken: transfer amount exceeds allowance\");\r\n\r\n        balances[sender] -= amount;\r\n        balances[recipient] += amount;\r\n        allowances[sender][msg.sender] -= amount;\r\n        emit Transfer(sender, recipient, amount);\r\n        return true;\r\n    }\r\n\r\n    function allowance(address accountOwner, address spender) public view returns (uint256) {\r\n        return allowances[accountOwner][spender];\r\n    }\r\n\r\n    function increaseAllowance(address spender, uint256 addedValue) public whenNotPaused returns (bool) {\r\n        allowances[msg.sender][spender] += addedValue;\r\n        emit Approval(msg.sender, spender, allowances[msg.sender][spender]);\r\n        return true;\r\n    }\r\n\r\n    function decreaseAllowance(address spender, uint256 subtractedValue) public whenNotPaused returns (bool) {\r\n        require(allowances[msg.sender][spender] >= subtractedValue, \"OMToken: decreased allowance below zero\");\r\n        allowances[msg.sender][spender] -= subtractedValue;\r\n        emit Approval(msg.sender, spender, allowances[msg.sender][spender]);\r\n        return true;\r\n    }\r\n}\r\n",
  "sourcePath": "F:/CodeVarious/oxygen-token/contracts/OMToken.sol",
  "compiler": {
    "name": "solc",
    "version": "0.8.20+commit.a1b79de6.Emscripten.clang"
  },
  "schemaVersion": "2.0.1",
  "updatedAt": "2024-10-28T06:02:55.132Z"
}