{
  "contractName": "SecureManager",
  "abi": [
    {
      "inputs": [
        {
          "internalType": "address",
          "name": "_omToken",
          "type": "address"
        },
        {
          "internalType": "address",
          "name": "_ocToken",
          "type": "address"
        },
        {
          "internalType": "address[]",
          "name": "_approvers",
          "type": "address[]"
        },
        {
          "internalType": "uint256",
          "name": "_requiredApprovals",
          "type": "uint256"
        }
      ],
      "stateMutability": "nonpayable",
      "type": "constructor"
    },
    {
      "anonymous": false,
      "inputs": [
        {
          "indexed": true,
          "internalType": "address",
          "name": "approver",
          "type": "address"
        }
      ],
      "name": "WithdrawalApproved",
      "type": "event"
    },
    {
      "anonymous": false,
      "inputs": [
        {
          "indexed": false,
          "internalType": "uint256",
          "name": "amountOM",
          "type": "uint256"
        },
        {
          "indexed": false,
          "internalType": "uint256",
          "name": "amountOC",
          "type": "uint256"
        }
      ],
      "name": "WithdrawalExecuted",
      "type": "event"
    },
    {
      "anonymous": false,
      "inputs": [
        {
          "indexed": true,
          "internalType": "address",
          "name": "initiator",
          "type": "address"
        },
        {
          "indexed": false,
          "internalType": "uint256",
          "name": "amountOM",
          "type": "uint256"
        },
        {
          "indexed": false,
          "internalType": "uint256",
          "name": "amountOC",
          "type": "uint256"
        }
      ],
      "name": "WithdrawalRequested",
      "type": "event"
    },
    {
      "inputs": [
        {
          "internalType": "address",
          "name": "_approver",
          "type": "address"
        }
      ],
      "name": "addApprover",
      "outputs": [],
      "stateMutability": "nonpayable",
      "type": "function"
    },
    {
      "inputs": [],
      "name": "approvalCount",
      "outputs": [
        {
          "internalType": "uint256",
          "name": "",
          "type": "uint256"
        }
      ],
      "stateMutability": "view",
      "type": "function"
    },
    {
      "inputs": [],
      "name": "approveWithdrawal",
      "outputs": [],
      "stateMutability": "nonpayable",
      "type": "function"
    },
    {
      "inputs": [
        {
          "internalType": "address",
          "name": "",
          "type": "address"
        }
      ],
      "name": "approvers",
      "outputs": [
        {
          "internalType": "bool",
          "name": "",
          "type": "bool"
        }
      ],
      "stateMutability": "view",
      "type": "function"
    },
    {
      "inputs": [
        {
          "internalType": "address",
          "name": "recipient",
          "type": "address"
        },
        {
          "internalType": "uint256",
          "name": "amountOM",
          "type": "uint256"
        },
        {
          "internalType": "uint256",
          "name": "amountOC",
          "type": "uint256"
        }
      ],
      "name": "executeWithdrawal",
      "outputs": [],
      "stateMutability": "nonpayable",
      "type": "function"
    },
    {
      "inputs": [
        {
          "internalType": "address",
          "name": "",
          "type": "address"
        }
      ],
      "name": "hasApproved",
      "outputs": [
        {
          "internalType": "bool",
          "name": "",
          "type": "bool"
        }
      ],
      "stateMutability": "view",
      "type": "function"
    },
    {
      "inputs": [],
      "name": "ocToken",
      "outputs": [
        {
          "internalType": "contract OCToken",
          "name": "",
          "type": "address"
        }
      ],
      "stateMutability": "view",
      "type": "function"
    },
    {
      "inputs": [],
      "name": "omToken",
      "outputs": [
        {
          "internalType": "contract OMToken",
          "name": "",
          "type": "address"
        }
      ],
      "stateMutability": "view",
      "type": "function"
    },
    {
      "inputs": [],
      "name": "owner",
      "outputs": [
        {
          "internalType": "address",
          "name": "",
          "type": "address"
        }
      ],
      "stateMutability": "view",
      "type": "function"
    },
    {
      "inputs": [
        {
          "internalType": "address",
          "name": "_approver",
          "type": "address"
        }
      ],
      "name": "removeApprover",
      "outputs": [],
      "stateMutability": "nonpayable",
      "type": "function"
    },
    {
      "inputs": [],
      "name": "requiredApprovals",
      "outputs": [
        {
          "internalType": "uint256",
          "name": "",
          "type": "uint256"
        }
      ],
      "stateMutability": "view",
      "type": "function"
    }
  ],
  "bytecode": "0x608060405234801561001057600080fd5b50d3801561001d57600080fd5b50d2801561002a57600080fd5b5060405162000a0b38038062000a0b83398101604081905261004b916101df565b600081116100a05760405162461bcd60e51b815260206004820152601660248201527f496e76616c696420617070726f76616c20636f756e740000000000000000000060448201526064015b60405180910390fd5b81518111156100f15760405162461bcd60e51b815260206004820152601b60248201527f546f6f206d616e7920617070726f76616c7320726571756972656400000000006044820152606401610097565b60028054336001600160a01b0319918216179091556000805482166001600160a01b03878116919091178255600180549093169086161790915560048290555b825181101561019657600160036000858481518110610152576101526102cd565b6020908102919091018101516001600160a01b03168252810191909152604001600020805460ff19169115159190911790558061018e816102e3565b915050610131565b505050505061030a565b80516000906001600160a81b03811681146101ba57600080fd5b6001600160a01b031692915050565b634e487b7160e01b600052604160045260246000fd5b600080600080608085870312156101f557600080fd5b6101fe856101a0565b9350602061020d8187016101a0565b60408701519094506001600160401b038082111561022a57600080fd5b818801915088601f83011261023e57600080fd5b815181811115610250576102506101c9565b8060051b604051601f19603f83011681018181108582111715610275576102756101c9565b60405291825284820192508381018501918b83111561029357600080fd5b938501935b828510156102b8576102a9856101a0565b84529385019392850192610298565b60609a909a0151989b979a5050505050505050565b634e487b7160e01b600052603260045260246000fd5b60006001820161030357634e487b7160e01b600052601160045260246000fd5b5060010190565b6106f1806200031a6000396000f3fe608060405234801561001057600080fd5b50d3801561001d57600080fd5b50d2801561002a57600080fd5b50600436106100c35760003560e01c80636884d0a61161008b5780636884d0a61461015b5780636cf4c88f146101725780638da5cb5b1461018557806399c1aadc14610198578063b646c194146101a1578063c73992e4146101b457600080fd5b80630a144391146100c85780632c8b8bb31461010057806338a077b61461010a5780633c6210421461011d5780634a9ba05b14610148575b600080fd5b6100eb6100d63660046105fa565b60036020526000908152604090205460ff1681565b60405190151581526020015b60405180910390f35b6101086101d7565b005b61010861011836600461061c565b6102da565b600154610130906001600160a01b031681565b6040516001600160a01b0390911681526020016100f7565b600054610130906001600160a01b031681565b61016460055481565b6040519081526020016100f7565b6101086101803660046105fa565b610539565b600254610130906001600160a01b031681565b61016460045481565b6101086101af3660046105fa565b610584565b6100eb6101c23660046105fa565b60066020526000908152604090205460ff1681565b3360009081526003602052604090205460ff1661022d5760405162461bcd60e51b815260206004820152600f60248201526e2737ba1030b71030b8383937bb32b960891b60448201526064015b60405180910390fd5b3360009081526006602052604090205460ff16156102805760405162461bcd60e51b815260206004820152601060248201526f105b1c9958591e48185c1c1c9bdd995960821b6044820152606401610224565b336000908152600660205260408120805460ff1916600117905560058054916102a88361064f565b909155505060405133907fa6f81e7bd0baaee9c1eb9cb41e557c9797a9091c0dc372eb59907f969bcefcf090600090a2565b6002546001600160a01b031633146103045760405162461bcd60e51b815260040161022490610676565b600454600554101561034f5760405162461bcd60e51b81526020600482015260146024820152734e6f7420656e6f75676820617070726f76616c7360601b6044820152606401610224565b60005460405163a9059cbb60e01b81526001600160a01b038581166004830152602482018590529091169063a9059cbb906044016020604051808303816000875af11580156103a2573d6000803e3d6000fd5b505050506040513d601f19601f820116820180604052508101906103c69190610699565b6104075760405162461bcd60e51b815260206004820152601260248201527113d348151c985b9cd9995c8819985a5b195960721b6044820152606401610224565b60015460405163a9059cbb60e01b81526001600160a01b038581166004830152602482018490529091169063a9059cbb906044016020604051808303816000875af115801561045a573d6000803e3d6000fd5b505050506040513d601f19601f8201168201806040525081019061047e9190610699565b6104bf5760405162461bcd60e51b815260206004820152601260248201527113d0c8151c985b9cd9995c8819985a5b195960721b6044820152606401610224565b60005b6005548110156104f557336000908152600660205260409020805460ff19169055806104ed8161064f565b9150506104c2565b50600060055560408051838152602081018390527f31d3fb496634645407643eb204dae990bd803a7289718931990377e69fe48ce9910160405180910390a1505050565b6002546001600160a01b031633146105635760405162461bcd60e51b815260040161022490610676565b6001600160a01b03166000908152600360205260409020805460ff19169055565b6002546001600160a01b031633146105ae5760405162461bcd60e51b815260040161022490610676565b6001600160a01b03166000908152600360205260409020805460ff19166001179055565b600081356001600160a81b03811681146105eb57600080fd5b6001600160a01b031692915050565b60006020828403121561060c57600080fd5b610615826105d2565b9392505050565b60008060006060848603121561063157600080fd5b61063a846105d2565b95602085013595506040909401359392505050565b60006001820161066f57634e487b7160e01b600052601160045260246000fd5b5060010190565b6020808252600990820152682737ba1037bbb732b960b91b604082015260600190565b6000602082840312156106ab57600080fd5b8151801515811461061557600080fdfea26474726f6e5822122046980ab399d9e30d2ffc37297c1bd39fa187a2979004d512b1ae8f86afa2bc4d64736f6c63430008140033",
  "source": "// SPDX-License-Identifier: MIT\npragma solidity ^0.8.20;\n\nimport \"./OMToken.sol\";\nimport \"./OCToken.sol\";\n\ncontract SecureManager {\n    OMToken public omToken;\n    OCToken public ocToken;\n    \n    address public owner;\n    mapping(address => bool) public approvers;\n    uint256 public requiredApprovals;\n    uint256 public approvalCount;\n    mapping(address => bool) public hasApproved;\n\n    event WithdrawalRequested(address indexed initiator, uint256 amountOM, uint256 amountOC);\n    event WithdrawalApproved(address indexed approver);\n    event WithdrawalExecuted(uint256 amountOM, uint256 amountOC);\n\n    \n\n    modifier onlyOwner() {\n        require(msg.sender == owner, \"Not owner\");\n        _;\n    }\n\n    modifier onlyApprover() {\n        require(approvers[msg.sender], \"Not an approver\");\n        _;\n    }\n\n    constructor(address _omToken, address _ocToken, address[] memory _approvers, uint256 _requiredApprovals) {\n        require(_requiredApprovals > 0, \"Invalid approval count\");\n        require(_requiredApprovals <= _approvers.length, \"Too many approvals required\");\n\n        owner = msg.sender;\n        omToken = OMToken(_omToken);\n        ocToken = OCToken(_ocToken);\n        requiredApprovals = _requiredApprovals;\n\n        for (uint256 i = 0; i < _approvers.length; i++) {\n            approvers[_approvers[i]] = true;\n        }\n    }\n\n    function approveWithdrawal() external onlyApprover {\n        require(!hasApproved[msg.sender], \"Already approved\");\n\n        hasApproved[msg.sender] = true;\n        approvalCount++;\n\n        emit WithdrawalApproved(msg.sender);\n    }\n\n    function executeWithdrawal(address recipient, uint256 amountOM, uint256 amountOC) external onlyOwner {\n        require(approvalCount >= requiredApprovals, \"Not enough approvals\");\n\n        require(omToken.transfer(recipient, amountOM), \"OM Transfer failed\");\n        require(ocToken.transfer(recipient, amountOC), \"OC Transfer failed\");\n        \n        // Reset approvals after execution\n        for (uint256 i = 0; i < approvalCount; i++) {\n            hasApproved[msg.sender] = false;\n        }\n        approvalCount = 0;\n\n        emit WithdrawalExecuted(amountOM, amountOC);\n    }\n\n    function addApprover(address _approver) external onlyOwner {\n        approvers[_approver] = true;\n    }\n\n    function removeApprover(address _approver) external onlyOwner {\n        approvers[_approver] = false;\n    }\n    \n}\n",
  "sourcePath": "/media/x3at/CRYSTAL REFACTOR/CodeVarious/oxygen-token/contracts/SecureManager.sol",
  "compiler": {
    "name": "solc",
    "version": "0.8.20+commit.5f1834bc.Emscripten.clang"
  },
  "schemaVersion": "2.0.1",
  "updatedAt": "2025-02-14T23:53:27.042Z"
}